:020000040800F2
:1000000000000220591C0008251C0008271C0008BD
:10001000291C00082B1C00082D1C000800000000F3
:100020000000000000000000000000002F1C00087D
:10003000311C000800000000331C0008351C0008BB
:10004000A91C0008A91C0008A91C0008A91C00087C
:10005000A91C0008A91C0008A91C0008A91C00086C
:10006000A91C0008A91C0008A91C0008A91C00085C
:10007000A91C0008A91C0008A91C0008A91C00084C
:10008000A91C0008A91C0008A91C0008A91C00083C
:10009000A91C0008A91C0008A91C0008A91C00082C
:1000A000A91C0008A91C0008A91C0008A91C00081C
:1000B000A91C0008A91C0008A91C0008A91C00080C
:1000C000A91C0008A91C0008A91C0008A91C0008FC
:1000D000A91C0008A91C0008A91C0008A91C0008EC
:1000E000A91C0008A91C0008A91C0008A91C0008DC
:1000F000A91C0008A91C0008A91C0008A91C0008CC
:10010000A91C0008A91C0008A91C0008A91C0008BB
:10011000A91C0008A91C0008A91C0008A91C0008AB
:10012000A91C0008A91C0008A91C0008A91C00089B
:10013000A91C00080000000000000000A91C000825
:10014000A91C0008A91C0008A91C0008A91C00087B
:10015000A91C0008A91C0008A91C0008A91C00086B
:10016000A91C0008A91C0008A91C0008A91C00085B
:10017000A91C0008A91C0008A91C00080000000018
:1001800000000000A91C00080000000000000000A2
:10019000A91C00080000000000000000A91C0008C5
:1001A000000000000000000000000000A91C000882
:1001B000A91C0008A91C0008A91C0008A91C00080B
:0401C000A91C00086E
:1001C80010B5054C237833B9044B13B10448AFF389
:1001D80000800123237010BD1000002000000000E3
:1001E800041D000808B5034B1BB103490348AFF3CE
:1001F800008008BD0000000014000020041D000855
:1002080081F0004102E000BF83F0004330B54FEABF
:1002180041044FEA430594EA050F08BF90EA020F2C
:100228001FBF54EA000C55EA020C7FEA645C7FEABF
:10023800655C00F0E2804FEA5454D4EB5555B8BFE2
:100248006D420CDD2C4480EA020281EA030382EA53
:10025800000083EA010180EA020281EA0303362DE5
:1002680088BF30BD11F0004F4FEA01314FF4801CB8
:100278004CEA113102D0404261EB410113F0004FCA
:100288004FEA03334CEA133302D0524263EB430381
:1002980094EA050F00F0A780A4F10104D5F1200E1F
:1002A8000DDB02FA0EFC22FA05F2801841F100017A
:1002B80003FA0EF2801843FA05F359410EE0A5F14E
:1002C80020050EF1200E012A03FA0EFC28BF4CF07F
:1002D800020C43FA05F3C01851EBE37101F0004535
:1002E80007D54FF0000EDCF1000C7EEB00006EEB42
:1002F8000101B1F5801F1BD3B1F5001F0CD34908CC
:100308005FEA30004FEA3C0C04F101044FEA445222
:1003180012F5800F80F09A80BCF1004F08BF5FEAA9
:10032800500C50F1000041EB045141EA050130BD89
:100338005FEA4C0C404141EB010111F4801FA4F12C
:100348000104E9D191F0000F04BF01460020B1FA81
:1003580081F308BF2033A3F10B03B3F120020CDAB9
:100368000C3208DD02F1140CC2F10C0201FA0CF097
:1003780021FA02F10CE002F11402D8BFC2F1200CFC
:1003880001FA02F120FA0CFCDCBF41EA0C019040B2
:10039800E41AA2BF01EB0451294330BD6FEA0404FB
:1003A8001F3C1CDA0C340EDC04F11404C4F12002E6
:1003B80020FA04F001FA02F340EA030021FA04F3F8
:1003C80045EA030130BDC4F10C04C4F1200220FA4F
:1003D80002F001FA04F340EA0300294630BD21FA8D
:1003E80004F0294630BD94F0000F83F4801306BF53
:1003F80081F480110134013D4EE77FEA645C18BF47
:100408007FEA655C29D094EA050F08BF90EA020FDD
:1004180005D054EA000C04BF1946104630BD91EAD5
:10042800030F1EBF0021002030BD5FEA545C05D1D8
:100438004000494128BF41F0004130BD14F5800417
:100448003CBF01F5801130BD01F0004545F0FE418B
:1004580041F470014FF0000030BD7FEA645C1ABFC0
:10046800194610467FEA655C1CBF0B46024650EAF7
:10047800013406BF52EA033591EA030F41F4002123
:1004880030BD00BF90F0000F04BF0021704730B5A9
:100498004FF4806404F132044FF000054FF000017E
:1004A80050E700BF90F0000F04BF0021704730B53F
:1004B8004FF4806404F1320410F0004548BF404214
:1004C8004FF000013EE700BF42004FEAE2014FEA69
:1004D80031014FEA02701FBF12F07F4393F07F4F44
:1004E80081F06051704732F07F4208BF704793F047
:1004F8007F4F04BF41F40021704730B54FF460745A
:1005080001F0004521F000411CE700BF50EA01025C
:1005180008BF704730B54FF000050AE050EA010205
:1005280008BF704730B511F0004502D5404261EB75
:1005380041014FF4806404F132045FEA915C3FF4B6
:10054800D8AE4FF003025FEADC0C18BF03325FEA53
:10055800DC0C18BF033202EBDC02C2F1200300FA04
:1005680003FC20FA02F001FA03FE40EA0E0021FA29
:1005780002F11444BDE600BF70B54FF0FF0C4CF417
:10058800E06C1CEA11541DBF1CEA135594EA0C0FC9
:1005980095EA0C0F00F0DEF82C4481EA030621EA04
:1005A8004C5123EA4C5350EA013518BF52EA03353F
:1005B80041F4801143F4801338D0A0FB02CE4FF0F1
:1005C8000005E1FB02E506F00042E0FB03E54FF021
:1005D8000006E1FB03569CF0000F18BF4EF0010E19
:1005E800A4F1FF04B6F5007F64F5407404D25FEA15
:1005F8004E0E6D4146EB060642EAC62141EA5551C8
:100608004FEAC52040EA5E504FEACE2EB4F1FD0C09
:1006180088BFBCF5E06F1ED8BEF1004F08BF5FEA87
:10062800500E50F1000041EB045170BD06F0004639
:1006380046EA010140EA020081EA0301B4EB5C04E6
:10064800C2BFD4EB0C0541EA045170BD41F48011DE
:100658004FF0000E013C00F3AB8014F1360FDEBF03
:10066800002001F0004170BDC4F10004203C35DADF
:100678000C341BDC04F11404C4F1200500FA05F362
:1006880020FA04F001FA05F240EA020001F0004203
:1006980021F0004110EBD37021FA04F642EB060179
:1006A8005EEA430E08BF20EAD37070BDC4F10C04A3
:1006B800C4F1200500FA04F320FA05F001FA04F267
:1006C80040EA020001F0004110EBD37041F1000153
:1006D8005EEA430E08BF20EAD37070BDC4F120055E
:1006E80000FA05F24EEA020E20FA04F301FA05F2C6
:1006F80043EA020321FA04F001F0004121FA04F26E
:1007080020EA020000EBD3705EEA430E08BF20EA3D
:10071800D37070BD94F0000F0FD101F00046400077
:1007280041EB010111F4801F08BF013CF7D041EAF9
:10073800060195F0000F18BF704703F000465200FD
:1007480043EB030313F4801F08BF013DF7D043EACE
:100758000603704794EA0C0F0CEA135518BF95EA84
:100768000C0F0CD050EA410618BF52EA4306D1D10B
:1007780081EA030101F000414FF0000070BD50EA2A
:10078800410606BF1046194652EA430619D094EAB4
:100798000C0F02D150EA013613D195EA0C0F05D19E
:1007A80052EA03361CBF104619460AD181EA0301F2
:1007B80001F0004141F0FE4141F470014FF00000AA
:1007C80070BD41F0FE4141F4780170BD70B54FF045
:1007D800FF0C4CF4E06C1CEA11541DBF1CEA1355C5
:1007E80094EA0C0F95EA0C0F00F0A7F8A4EB0504A7
:1007F80081EA030E52EA03354FEA013100F088809E
:100808004FEA03334FF0805545EA131343EA126366
:100818004FEA022245EA111545EA10654FEA00261B
:100828000EF000419D4208BF964244F1FD0404F5D4
:10083800407402D25B084FEA3202B61A65EB030530
:100848005B084FEA32024FF480104FF4002CB6EBED
:10085800020E75EB030E22BFB61A754640EA0C006D
:100868005B084FEA3202B6EB020E75EB030E22BFAD
:10087800B61A754640EA5C005B084FEA3202B6EBEE
:10088800020E75EB030E22BFB61A754640EA9C00AD
:100898005B084FEA3202B6EB020E75EB030E22BF7D
:1008A800B61A754640EADC0055EA060E18D04FEA3B
:1008B800051545EA16754FEA06164FEAC30343EADB
:1008C80052734FEAC2025FEA1C1CC0D111F4801FA8
:1008D8000BD141EA00014FF000004FF0004CB6E7A1
:1008E80011F4801F04BF01430020B4F1FD0C88BF40
:1008F800BCF5E06F3FF6AFAEB5EB030C04BFB6EB4B
:10090800020C5FEA500C50F1000041EB045170BD3D
:100918000EF0004E4EEA113114EB5C04C2BFD4EB6A
:100928000C0541EA045170BD41F480114FF0000EEE
:10093800013C90E645EA060E8DE60CEA135594EA6A
:100948000C0F08BF95EA0C0F3FF43BAF94EA0C0F6D
:100958000AD150EA01347FF434AF95EA0C0F7FF4E2
:1009680025AF104619462CE795EA0C0F06D152EA36
:1009780003353FF4FDAE1046194622E750EA41061A
:1009880018BF52EA43067FF4C5AE50EA41047FF42B
:100998000DAF52EA43057FF4EBAE12E74A0011D2DD
:1009A80012F5001211D20DD56FF47873B3EB6252C1
:1009B8000ED44FEAC12343F0004343EA505323FACD
:1009C80002F070474FF00000704750EA013002D142
:1009D8004FF0FF3070474FF00000704753B94AB9E5
:1009E800002908BF00281CBF4FF0FF314FF0FF302F
:1009F80000F072B9ADF1080C6DE904CE00F006F80C
:100A0800DDF804E0DDE9022304B070472DE9F04782
:100A1800089E04468846002B4BD18A42154667D962
:100A2800B2FA82F24AB1C2F1200701FA02F320FABF
:100A380007F7954047EA030894404FEA154E230C00
:100A4800B8FBFEF71FFA85FC0EFB178843EA08433C
:100A580007FB0CF1994209D9EB1807F1FF3080F038
:100A68001B81994240F21881023F2B445B1AA4B2C1
:100A7800B3FBFEF00EFB103344EA034400FB0CFC0E
:100A8800A44509D92C1900F1FF3380F00781A4454A
:100A980040F2048102382C4440EA0740A4EB0C04DD
:100AA80000271EB1D4400023C6E900433946BDE8FB
:100AB800F0878B4209D9002E00F0EB800027C6E9A9
:100AC800000138463946BDE8F087B3FA83F7002FAE
:100AD80047D18B4202D3824200F2FA80841A61EB3A
:100AE800030301209846002EE0D0C6E90048DDE760
:100AF80002B9FFDEB2FA82F2002A40F08F80491B69
:100B08004FEA154E1FFA85F80127B1FBFEFC230CAE
:100B18000EFB1C1143EA014308FB0CF1994207D96B
:100B2800EB180CF1FF3002D2994200F2CD808446D6
:100B3800591AA3B2B1FBFEF00EFB101443EA0444A9
:100B480008FB00F8A04507D92C1900F1FF3302D2A1
:100B5800A04500F2B6801846A4EB080440EA0C4011
:100B68009FE7C7F1200CBB4022FA0CFE4EEA030EA9
:100B780001FA07F420FA0CF521FA0CF34FEA1E48A3
:100B88002543B3FBF8F92C0C08FB19331FFA8EFA2E
:100B980044EA034309FB0AF49C4202FA07F200FA0A
:100BA80007F10BD91EEB030309F1FF3080F08780B2
:100BB8009C4240F28480A9F1020973441B1BADB228
:100BC800B3FBF8F008FB103345EA034400FB0AFACC
:100BD800A24508D91EEB040400F1FF336BD2A245ED
:100BE80069D90238744440EA0940A0FB0289A4EBA1
:100BF8000A044C45C2464B4654D351D0002E69D006
:100C0800B1EB0A0564EB030404FA0CFCFD40FC405C
:100C18004CEA0505C6E90054002747E7C2F120035E
:100C280020FA03F7954001FA02F021FA03F34FEA9C
:100C3800154E3843010CB3FBFEF71FFA85F80EFB7F
:100C4800173341EA034107FB08F38B4204FA02F425
:100C580007D9691807F1FF3C2FD28B422DD9023FE3
:100C68002944CB1A81B2B3FBFEF00EFB103341EAE4
:100C7800034100FB08F38B4207D9691800F1FF3CD8
:100C880017D28B4215D902382944C91A40EA0747B6
:100C98003BE73746304609E70746E7E61846FBE6EE
:100CA8004145ABD2B8EB020A69EB0E020138134694
:100CB800A4E76046E9E7184695E76746D1E7814625
:100CC8007CE702382C4447E7ACF1020C2B442FE7B1
:100CD800384608E73746E9E6704700BF10B50446CE
:100CE8000E4B18784FF47A73B3FBF0F30C4A106884
:100CF800B0FBF3F000F09CF868B90F2C01D9012083
:100D08000AE0002221464FF0FF3000F05DF8034B67
:100D18005C60002000E0012010BD00BF0000002042
:100D28000C00002008B50B4B1A6842F400721A60D8
:100D38001A6842F480621A601A6842F480721A6073
:100D4800032000F02FF80020FFF7C8FF00F04AFF4B
:100D5800002008BD003C0240034A1168034B1B7881
:100D68000B441360704700BF5000002000000020B3
:100D7800014B1868704700BF5000002038B5044682
:100D8800FFF7F6FF0546B4F1FF3F02D0044B1B788E
:100D98001C44FFF7EDFF401BA042FAD338BD00BF4B
:100DA80000000020074AD36823F4E0631B041B0CEF
:100DB800000200F4E060184340F0BF6040F40030E7
:100DC800D060704700ED00E030B4174BDB68C3F328
:100DD8000223C3F10704042C28BF04241D1D062D7B
:100DE80018D9033B4FF0FF3505FA04F421EA040152
:100DF800994005FA03F322EA0303194300280BDBA1
:100E08000901C9B200F1604000F5614080F80013A3
:100E180030BC70470023E5E700F00F000901C9B2B4
:100E2800024B1954F4E700BF00ED00E014ED00E0B8
:100E38000138B0F1807F0AD2064B5860064AF0218B
:100E480082F823100020986007221A60704701205A
:100E5800704700BF10E000E000ED00E000230F2B1A
:100E680000F2D180F0B583B039E0062200E000221C
:100E7800AA403A430234644D45F82420634A146872
:100E8800F24302EA04054F6817F4803F01D046EAAE
:100E980004055E4C2560646802EA04054F6817F48F
:100EA800003F01D046EA0405584C6560A46802EA90
:100EB80004054F6817F4801F01D046EA0405534C17
:100EC800A560E46822404D6815F4001F01D046EA89
:100ED80004024E4CE26001330F2B00F29280012293
:100EE8009A400C6804EA0206B242F4D14C68651EC6
:100EF800012D03D9112C01D0122C12D185685F0065
:100F08000324BC4025EA0405CC68BC402C4384601B
:100F1800456825EA02054C68C4F300129A402A4342
:100F28004260C4685F000322BA40D24314408D680F
:100F3800BD402543C5604C68022C01D0122C13D14A
:100F4800DD08083550F825E003F007044FEA840C63
:100F58000F2404FA0CF42EEA040E0C6904FA0CF4BB
:100F680044EA0E0440F82540046822404C6804F026
:100F78000304BC40224302604A6812F0805FAAD092
:100F880000220192224A546C44F480445464526C06
:100F980002F480420192019A9C08A51C1A4A52F850
:100FA800257003F0030295000F22AA4027EA0207E2
:100FB800184A90423FF45BAF02F58062904216D027
:100FC80002F58062904214D002F58062904212D0FD
:100FD80002F58062904210D002F5806290420ED0F5
:100FE80002F5806290423FF440AF072240E70122B9
:100FF8003EE702223CE703223AE7042238E70522CB
:1010080036E703B0F0BD704700380140003C0140AE
:10101800003802400000024012B90904816170479B
:1010280081617047002800F09E8070B50446504BDF
:101038001B6803F00F038B4209D2CBB24C4A1370E2
:10104800136803F00F038B4201D0012070BD2368A1
:1010580013F0020F17D013F0040F04D0454A936819
:1010680043F4E0539360236813F0080F04D0414A17
:10107800936843F4604393603E4A936823F0F00317
:10108800A068034393600D46236813F0010F32D024
:101098006368012B21D09A1E012A25D9354A126886
:1010A80012F0020F61D033498A6822F00302134319
:1010B8008B60FFF75DFE06462E4B9B6803F00C0322
:1010C8006268B3EB820F16D0FFF752FE801B41F225
:1010D80088339842F0D90320B8E7264A126812F4F8
:1010E800003FE0D10120B1E7224A126812F0007FE8
:1010F800D9D10120AAE71E4B1B6803F00F03AB42AE
:1011080009D9EAB21A4B1A701B6803F00F03AB42F5
:1011180001D001209AE7236813F0040F06D0154A7E
:10112800936823F4E053E1680B439360236813F05A
:10113800080F07D00F4A936823F46043216943EAF4
:10114800C103936000F052F80A4B9B68C3F3031382
:10115800094AD35CD840094B1860094B1868FFF757
:10116800BDFD002072E70120704701206EE700BF37
:10117800003C0240003802401C1D00080C00002002
:1011880004000020014B1868704700BF0C000020C5
:1011980008B5FFF7F7FF044B9B68C3F38223034AA4
:1011A800D35CD84008BD00BF003802402C1D0008A1
:1011B8000F2303600B4B9A6802F0030242609A689F
:1011C80002F0F00282609A6802F4E052C2609B6802
:1011D800DB0803F4E0530361034B1B6803F00F03C0
:1011E8000B60704700380240003C02402DE9F04B8C
:1011F8005C4B9B6803F00C03082B07D00C2B5BD0CF
:10120800042B00F0AD805848BDE8F08B554B5A6868
:1012180002F03F025B6813F4800F2AD0514B5B68E1
:10122800C3F388131E4600275C010025E41A65EB0A
:101238000705A90141EA9461A001001B61EB0501C2
:10124800CB0043EA5073C400A01943EB07014B02DB
:1012580043EAD0534402204619460023FFF7BEFB59
:10126800404B5B68C3F3014301335B00B0FBF3F011
:10127800CAE73C4B5B68C3F388131E4600275C0132
:101288000025E41A65EB0705A90141EA9461A0016C
:10129800001B61EB0501CB0043EA5073C400A019A1
:1012A80043EB07018B0243EA905384022046194618
:1012B8000023FFF793FBD3E72A4B5A6802F03F025B
:1012C8005B6813F4800F28D0264B5B68C3F3881340
:1012D8001E4600275C010025E41A65EB0705A901F5
:1012E80041EA9461A001001B61EB0501CB0043EAD0
:1012F8005073C400A01943EB07014B0243EAD053D3
:101308004402204619460023FFF768FB154B5B682B
:10131800C3F30273B0FBF3F076E7124B5B68C3F3D9
:1013280088131E4600275C010025E41A65EB0705B3
:10133800A90141EA9461A001001B61EB0501CB0002
:1013480043EA5073C400A01943EB07018B0243EA38
:1013580090538402204619460023FFF73FFBD5E748
:10136800024851E7003802400024F40000127A00D5
:1013780070B582B00446036813F0010F41D0A64B44
:101388009B6803F00C03042B32D0A34B9B6803F03B
:101398000C03082B27D0A04B9B6803F00C030C2BE5
:1013A80059D06368B3F5803F5BD0B3F5A02F5ED00A
:1013B800994B1A6822F480321A601A6822F4802243
:1013C8001A606368002B5CD0FFF7D2FC0546924B8D
:1013D8001B6813F4003F14D1FFF7CAFC401B6428B4
:1013E800F5D903209DE18C4B5B6813F4800FD2D0B4
:1013F800894B1B6813F4003F03D06368002B00F08F
:101408008D81236813F0020F67D0834B9B6813F01C
:101418000C0F4AD0804B9B6803F00C03082B3FD07D
:101428007D4B9B6803F00C030C2B48D0E368002B22
:1014380074D07A4B01221A60FFF79AFC0546764B66
:101448001B6813F0020F60D1FFF792FC401B0228C3
:10145800F5D9032065E1704B5B6813F4800FA0D0C9
:10146800C6E76D4A136843F480331360A9E76A4BF3
:101478001A6842F480221A601A6842F480321A60AC
:101488009FE7FFF775FC0546634B1B6813F4003FA5
:10149800B7D0FFF76DFC401B6428F5D9032040E165
:1014A8005D4B5B6813F4800FBAD15B4B1B6813F07C
:1014B800020F0AD0E368012B07D0012031E1564B17
:1014C8005B6813F4800FB1D1EFE7534A136823F038
:1014D800F803216943EAC1031360236813F0080F76
:1014E80040D0636963B34E4B01221A60FFF740FC9A
:1014F8000546494B5B6F13F0020F33D1FFF738FCF9
:10150800401B0228F5D903200BE1434A136823F056
:10151800F803216943EAC1031360DEE73F4B002269
:101528001A60FFF725FC05463B4B1B6813F0020FBA
:10153800D3D0FFF71DFC401B0228F5D90320F0E0AB
:10154800374B00221A60FFF713FC0546324B5B6FDE
:1015580013F0020F06D0FFF70BFC401B0228F5D949
:101568000320DEE0236813F0040F79D02A4B1B6CAC
:1015780013F0805F33D100230193274B1A6C42F09C
:1015880080521A641B6C03F080530193019B012560
:10159800244B1B6813F4807F23D0A368012B34D01D
:1015A800052B41D01C4B1A6F22F001021A671A6FE3
:1015B80022F004021A67A368002B3FD0FFF7D8FB7C
:1015C8000646154B1B6F13F0020F48D1FFF7D0FBEF
:1015D800801B41F288339842F3D90320A1E000250B
:1015E800D6E7104A136843F480731360FFF7C0FB13
:1015F80006460C4B1B6813F4807FCED1FFF7B8FB6F
:10160800801B0228F5D903208BE0034A136F43F0AF
:1016180001031367CFE700BF0038024000004742CC
:10162800800E474200700040404B1A6F42F004029F
:101638001A671A6F42F001021A67BCE7FFF798FBB6
:1016480006463A4B1B6F13F0020F08D0FFF790FBCA
:10165800801B41F288339842F3D9032061E0E5B951
:10166800A369002B5CD0314A926802F00C02082A68
:1016780059D0022B17D02E4B00221A60FFF778FBA7
:1016880004462A4B1B6813F0007F45D0FFF770FB18
:10169800001B0228F5D9032043E0244A136C23F0E9
:1016A80080531364DCE7224B00221A60FFF760FBCB
:1016B80005461E4B1B6813F0007F06D0FFF758FB4A
:1016C800401B0228F5D903202BE0E369226A134363
:1016D800626A43EA8213A26A5208013A43EA024361
:1016E800E26A43EA0263226B43EA02730F4A5360D9
:1016F8000F4B01221A60FFF73BFB04460B4B1B689C
:1017080013F0007F06D1FFF733FB001B0228F5D941
:10171800032006E0002004E0002002E0012000E0B1
:10172800002002B070BD0120FBE700BF0038024076
:10173800600047420138084BD8621A6922F001025A
:101748001A611A6842F001021A60034B1B6913F010
:10175800010FFAD0704700BF0004004000000000ED
:1017680000B587B0694601A8FFF722FD049B002B4E
:101778002ED0FFF70DFD4000FEF784FE18A3D3E935
:101788000023FEF7F9FEFFF709F9134A136C43F03B
:1017980002031364114B1A6822F010021A601A68C7
:1017A80022F001021A601A6822F004021A601A680C
:1017B80042F008021A60013898620922DA620122AE
:1017C8005A611A6922F001021A6107B05DF804FB38
:1017D800FFF7DEFCD0E700BF0038024000040040FD
:1017E8008DEDB5A0F7C6B03E08B530B9064B00225E
:1017F80019885868FFF710FC08BD034B01221988A7
:101808005868FFF709FCF7E72C00002010B5094CD1
:10181800012221896068FFF7FFFB0A20FFF78AFF92
:10182800002221896068FFF7F7FB3C20FFF782FF61
:1018380010BD00BF2C00002070B504460609384BC7
:101848001B78012B02D0022B34D070BD354D00F02F
:1018580001026989E868FFF7DFFB04F00202298AC0
:10186800E868FFF7D9FB04F00402698AE868FFF723
:10187800D3FB04F00802A98AE868FFF7CDFB06F05D
:101888000102E98AA869FFF7C7FB06F00202A98BE3
:10189800A869FFF7C1FB06F00402E98BA869FFF706
:1018A800BBFB06F00802298CA869FFF7B5FBFFF718
:1018B800ADFFCAE71B4D06F00102E98AA869FFF7E8
:1018C800ABFB06F00202A98BA869FFF7A5FB06F09F
:1018D8000402E98BA869FFF79FFB06F00802298C30
:1018E800A869FFF799FBFFF791FF04F00102E98A65
:1018F800A869FFF791FB04F00202A98BA869FFF71A
:101908008BFB04F00402E98BA869FFF785FB04F060
:101918000802298CA869FFF77FFBFFF777FF94E798
:10192800080000202C00002010B504460020FFF716
:101938005BFF2046FFF780FF10BD10B5044601206D
:10194800FFF752FF2046FFF777FF10BD38B5054671
:101958000020FFF749FF0E4C05F00102E18AA0695B
:10196800FFF75AFB05F00202A18BA069FFF754FBB1
:1019780005F00402E18BA069FFF74EFB05F00802B1
:10198800218CA069FFF748FBFFF740FF38BD00BF77
:101998002C00002038B5214C606021802281A36191
:1019A800BDF81030E382BDF81430A383BDF81830B9
:1019B800E383BDF81C302384FFF7D2FE184B0225C1
:1019C8001D7028245C701420FFF7D8F90320FFF756
:1019D800BDFF0520FFF7D2F90320FFF7B7FF01206D
:1019E800FFF7CCF90320FFF7B1FF0120FFF7C6F995
:1019F8002846FFF7ABFF0120FFF7C0F90F20FFF7DC
:101A080093FF0120FFF790FF0320FFF7B7F9204667
:101A1800FFF78AFF0320FFF7B1F938BD2C0000203B
:101A28000800002038B50546002403E0FFF785FFCD
:101A38000134E4B20F2C02D8285D0028F6D138BD55
:101A4800F0B58BB000240594069407940894099483
:101A580001942A4B1A6B42F004021A631A6B02F0C3
:101A680004020192019A02941A6B42F080021A63EE
:101A78001A6B02F080020292029A03941A6B42F0E7
:101A880001021A631A6B02F001020392039A04948A
:101A98001A6B42F002021A631B6B03F002030493F1
:101AA800049B174F224620213846FFF7B5FA154DFB
:101AB800224641F670112846FFF7AEFA4FF400535C
:101AC8000593114B0693079405A92846FFF7C6F915
:101AD80020230593012606960794089405A93846FD
:101AE800FFF7BCF941F6701305930696079408941E
:101AF80005A92846FFF7B2F90BB0F0BD003802403F
:101B080000000240000802400000211030B595B0E6
:101B18003422002107A800F0E9F800240294039475
:101B280004940594069400941B4B1A6C42F080525E
:101B38001A641B6C03F080530093009B0194174AAE
:101B4800136823F4404343F480431360136803F499
:101B580040430193019B0225079501230A93102313
:101B68000B930D950E940F934FF4A87310930423C1
:101B780011931295139507A8FFF7FAFB0F23029309
:101B8800039504944FF4805305930694294602A8BC
:101B9800FFF748FA15B030BD003802400070004029
:101BA80000B585B0FFF7BEF8FFF7B0FFFFF748FFB5
:101BB8000A481023039320230293402301934FF4F0
:101BC8008073009303464FF400624FF48051FFF78F
:101BD800E1FE0348FFF726FFFEE700BF00080240CA
:101BE800341D000882B0002100910B4B5A6C42F45E
:101BF80080425A645A6C02F480420092009A019121
:101C08001A6C42F080521A641B6C03F080530193E3
:101C1800019B02B0704700BF003802407047FEE7E2
:101C2800FEE7FEE7FEE770477047704708B5FFF725
:101C380093F808BD054BD3F8882042F47002C3F826
:101C480088204FF000629A60704700BF00ED00E006
:101C5800DFF834D0002103E00C4B5B5843500431CB
:101C68000B480C4B42189A42F6D30B4A02E0002369
:101C780042F8043B094B9A42F9D3FFF7DBFF00F027
:101C880011F8FFF78DFF704700000220501D000873
:101C98000000002010000020100000205400002048
:101CA800FEE7000070B50D4E0D4CA41BA4100025D6
:101CB800A54209D10B4E0C4C00F020F8A41BA4102F
:101CC8000025A54205D170BD56F825309847013545
:101CD800EEE756F8253098470135F2E7481D000829
:101CE800481D0008481D00084C1D00080244034612
:101CF800934200D1704703F8011BF9E7F8B500BF1C
:101D0800F8BC08BC9E467047F8B500BFF8BC08BCD4
:041D18009E4670472C
:101D1C00000000000000000001020304060708098F
:101D2C00000000000102030448454C4C4F5F574F24
:041D3C00524C4400C1
:081D4000D4ECFF7F010000005C
:041D4800ED010008A1
:041D4C00C9010008C1
:101D5000010000001000000001380F000024F40012
:0400000508001C597A
:00000001FF
